:100000000C9434000C943E000C943E000C943E0082
:100010000C943E000C943E000C943E000C943E0068
:100020000C943E000C943E000C943E000C943E0058
:100030000C943E000C943E000C943E000C943E0048
:100040000C943E000C943E000C943E000C943E0038
:100050000C943E000C943E000C943E000C943E0028
:100060000C943E000C943E0011241FBECFEFD8E04C
:10007000DEBFCDBF0E9440000C94B3000C94000082
:1000800088EF84B98CE18AB987E085B970E275B9E7
:100090002FEF59E668E1215050406040E1F700C081
:1000A000000023B183B1827093B19470522F5170CC
:1000B00020FF37C091114DC0811141C040E020E0C8
:1000C00030E0552341F161E050E0882341F1862F73
:1000D000952F15B8EFEF59E668E1E15050406040C8
:1000E000E1F700C00000440F440F4BB94BB1220FA1
:1000F000331F220F331F220F331F242B2BB92BB199
:1001000082959295907F9827807F9827822B8BB934
:10011000BECF21E030E061E050E08823C1F260E032
:10012000D6CF81110CC040E09111F3CF882399F014
:10013000E1E060E09111E0E02E2F362FC2CF41E0E8
:10014000911140E0552381F38111F2CF20E030E09E
:10015000BACF41E0FBCF20E030E061E050E08823FF
:0A01600009F4B5CFDCCFF894FFCF0F
:00000001FF
